{
  "address": "0x5f563705386Aa41687313074a762d58B42a022BC",
  "abi": [
    {
      "inputs": [
        {
          "internalType": "uint256",
          "name": "initialReward",
          "type": "uint256"
        }
      ],
      "stateMutability": "nonpayable",
      "type": "constructor"
    },
    {
      "inputs": [],
      "name": "InvalidRewardAmount",
      "type": "error"
    },
    {
      "inputs": [],
      "name": "InvalidURI",
      "type": "error"
    },
    {
      "inputs": [],
      "name": "MaxSupplyReached",
      "type": "error"
    },
    {
      "inputs": [],
      "name": "MaxTokenSupplyReached",
      "type": "error"
    },
    {
      "inputs": [],
      "name": "ZeroAddress",
      "type": "error"
    },
    {
      "anonymous": false,
      "inputs": [
        {
          "indexed": true,
          "internalType": "address",
          "name": "owner",
          "type": "address"
        },
        {
          "indexed": true,
          "internalType": "address",
          "name": "approved",
          "type": "address"
        },
        {
          "indexed": true,
          "internalType": "uint256",
          "name": "tokenId",
          "type": "uint256"
        }
      ],
      "name": "Approval",
      "type": "event"
    },
    {
      "anonymous": false,
      "inputs": [
        {
          "indexed": true,
          "internalType": "address",
          "name": "owner",
          "type": "address"
        },
        {
          "indexed": true,
          "internalType": "address",
          "name": "operator",
          "type": "address"
        },
        {
          "indexed": false,
          "internalType": "bool",
          "name": "approved",
          "type": "bool"
        }
      ],
      "name": "ApprovalForAll",
      "type": "event"
    },
    {
      "anonymous": false,
      "inputs": [
        {
          "indexed": false,
          "internalType": "uint256",
          "name": "_fromTokenId",
          "type": "uint256"
        },
        {
          "indexed": false,
          "internalType": "uint256",
          "name": "_toTokenId",
          "type": "uint256"
        }
      ],
      "name": "BatchMetadataUpdate",
      "type": "event"
    },
    {
      "anonymous": false,
      "inputs": [
        {
          "indexed": false,
          "internalType": "uint256",
          "name": "_tokenId",
          "type": "uint256"
        }
      ],
      "name": "MetadataUpdate",
      "type": "event"
    },
    {
      "anonymous": false,
      "inputs": [
        {
          "indexed": true,
          "internalType": "address",
          "name": "creator",
          "type": "address"
        },
        {
          "indexed": true,
          "internalType": "uint256",
          "name": "tokenId",
          "type": "uint256"
        },
        {
          "indexed": false,
          "internalType": "string",
          "name": "uri",
          "type": "string"
        }
      ],
      "name": "NFTMinted",
      "type": "event"
    },
    {
      "anonymous": false,
      "inputs": [
        {
          "indexed": true,
          "internalType": "address",
          "name": "previousOwner",
          "type": "address"
        },
        {
          "indexed": true,
          "internalType": "address",
          "name": "newOwner",
          "type": "address"
        }
      ],
      "name": "OwnershipTransferred",
      "type": "event"
    },
    {
      "anonymous": false,
      "inputs": [
        {
          "indexed": false,
          "internalType": "address",
          "name": "account",
          "type": "address"
        }
      ],
      "name": "Paused",
      "type": "event"
    },
    {
      "anonymous": false,
      "inputs": [
        {
          "indexed": false,
          "internalType": "uint256",
          "name": "oldAmount",
          "type": "uint256"
        },
        {
          "indexed": false,
          "internalType": "uint256",
          "name": "newAmount",
          "type": "uint256"
        }
      ],
      "name": "RewardAmountUpdated",
      "type": "event"
    },
    {
      "anonymous": false,
      "inputs": [
        {
          "indexed": true,
          "internalType": "address",
          "name": "owner",
          "type": "address"
        },
        {
          "indexed": true,
          "internalType": "address",
          "name": "spender",
          "type": "address"
        },
        {
          "indexed": false,
          "internalType": "uint256",
          "name": "value",
          "type": "uint256"
        }
      ],
      "name": "TokenApproval",
      "type": "event"
    },
    {
      "anonymous": false,
      "inputs": [
        {
          "indexed": true,
          "internalType": "address",
          "name": "from",
          "type": "address"
        },
        {
          "indexed": true,
          "internalType": "address",
          "name": "to",
          "type": "address"
        },
        {
          "indexed": false,
          "internalType": "uint256",
          "name": "value",
          "type": "uint256"
        }
      ],
      "name": "TokenTransfer",
      "type": "event"
    },
    {
      "anonymous": false,
      "inputs": [
        {
          "indexed": true,
          "internalType": "address",
          "name": "from",
          "type": "address"
        },
        {
          "indexed": true,
          "internalType": "address",
          "name": "to",
          "type": "address"
        },
        {
          "indexed": true,
          "internalType": "uint256",
          "name": "tokenId",
          "type": "uint256"
        }
      ],
      "name": "Transfer",
      "type": "event"
    },
    {
      "anonymous": false,
      "inputs": [
        {
          "indexed": false,
          "internalType": "address",
          "name": "account",
          "type": "address"
        }
      ],
      "name": "Unpaused",
      "type": "event"
    },
    {
      "inputs": [],
      "name": "MAX_NFT_SUPPLY",
      "outputs": [
        {
          "internalType": "uint256",
          "name": "",
          "type": "uint256"
        }
      ],
      "stateMutability": "view",
      "type": "function"
    },
    {
      "inputs": [],
      "name": "MAX_REWARD_AMOUNT",
      "outputs": [
        {
          "internalType": "uint256",
          "name": "",
          "type": "uint256"
        }
      ],
      "stateMutability": "view",
      "type": "function"
    },
    {
      "inputs": [],
      "name": "MAX_TOKEN_SUPPLY",
      "outputs": [
        {
          "internalType": "uint256",
          "name": "",
          "type": "uint256"
        }
      ],
      "stateMutability": "view",
      "type": "function"
    },
    {
      "inputs": [
        {
          "internalType": "address",
          "name": "to",
          "type": "address"
        },
        {
          "internalType": "uint256",
          "name": "tokenId",
          "type": "uint256"
        }
      ],
      "name": "approve",
      "outputs": [],
      "stateMutability": "nonpayable",
      "type": "function"
    },
    {
      "inputs": [
        {
          "internalType": "address",
          "name": "owner",
          "type": "address"
        }
      ],
      "name": "balanceOf",
      "outputs": [
        {
          "internalType": "uint256",
          "name": "",
          "type": "uint256"
        }
      ],
      "stateMutability": "view",
      "type": "function"
    },
    {
      "inputs": [
        {
          "internalType": "uint256",
          "name": "",
          "type": "uint256"
        }
      ],
      "name": "creators",
      "outputs": [
        {
          "internalType": "address",
          "name": "",
          "type": "address"
        }
      ],
      "stateMutability": "view",
      "type": "function"
    },
    {
      "inputs": [
        {
          "internalType": "uint256",
          "name": "tokenId",
          "type": "uint256"
        }
      ],
      "name": "getApproved",
      "outputs": [
        {
          "internalType": "address",
          "name": "",
          "type": "address"
        }
      ],
      "stateMutability": "view",
      "type": "function"
    },
    {
      "inputs": [
        {
          "internalType": "address",
          "name": "owner",
          "type": "address"
        },
        {
          "internalType": "address",
          "name": "operator",
          "type": "address"
        }
      ],
      "name": "isApprovedForAll",
      "outputs": [
        {
          "internalType": "bool",
          "name": "",
          "type": "bool"
        }
      ],
      "stateMutability": "view",
      "type": "function"
    },
    {
      "inputs": [
        {
          "internalType": "string",
          "name": "metadataURI",
          "type": "string"
        }
      ],
      "name": "mintNFT",
      "outputs": [],
      "stateMutability": "nonpayable",
      "type": "function"
    },
    {
      "inputs": [],
      "name": "name",
      "outputs": [
        {
          "internalType": "string",
          "name": "",
          "type": "string"
        }
      ],
      "stateMutability": "view",
      "type": "function"
    },
    {
      "inputs": [
        {
          "internalType": "address",
          "name": "to",
          "type": "address"
        },
        {
          "internalType": "uint256",
          "name": "tokenId",
          "type": "uint256"
        }
      ],
      "name": "nftApprove",
      "outputs": [],
      "stateMutability": "nonpayable",
      "type": "function"
    },
    {
      "inputs": [
        {
          "internalType": "address",
          "name": "owner",
          "type": "address"
        }
      ],
      "name": "nftBalanceOf",
      "outputs": [
        {
          "internalType": "uint256",
          "name": "",
          "type": "uint256"
        }
      ],
      "stateMutability": "view",
      "type": "function"
    },
    {
      "inputs": [],
      "name": "nftName",
      "outputs": [
        {
          "internalType": "string",
          "name": "",
          "type": "string"
        }
      ],
      "stateMutability": "view",
      "type": "function"
    },
    {
      "inputs": [],
      "name": "nftSymbol",
      "outputs": [
        {
          "internalType": "string",
          "name": "",
          "type": "string"
        }
      ],
      "stateMutability": "view",
      "type": "function"
    },
    {
      "inputs": [],
      "name": "nftTotalSupply",
      "outputs": [
        {
          "internalType": "uint256",
          "name": "",
          "type": "uint256"
        }
      ],
      "stateMutability": "view",
      "type": "function"
    },
    {
      "inputs": [
        {
          "internalType": "address",
          "name": "from",
          "type": "address"
        },
        {
          "internalType": "address",
          "name": "to",
          "type": "address"
        },
        {
          "internalType": "uint256",
          "name": "tokenId",
          "type": "uint256"
        }
      ],
      "name": "nftTransferFrom",
      "outputs": [],
      "stateMutability": "nonpayable",
      "type": "function"
    },
    {
      "inputs": [],
      "name": "owner",
      "outputs": [
        {
          "internalType": "address",
          "name": "",
          "type": "address"
        }
      ],
      "stateMutability": "view",
      "type": "function"
    },
    {
      "inputs": [
        {
          "internalType": "uint256",
          "name": "tokenId",
          "type": "uint256"
        }
      ],
      "name": "ownerOf",
      "outputs": [
        {
          "internalType": "address",
          "name": "",
          "type": "address"
        }
      ],
      "stateMutability": "view",
      "type": "function"
    },
    {
      "inputs": [],
      "name": "pause",
      "outputs": [],
      "stateMutability": "nonpayable",
      "type": "function"
    },
    {
      "inputs": [],
      "name": "paused",
      "outputs": [
        {
          "internalType": "bool",
          "name": "",
          "type": "bool"
        }
      ],
      "stateMutability": "view",
      "type": "function"
    },
    {
      "inputs": [],
      "name": "renounceOwnership",
      "outputs": [],
      "stateMutability": "nonpayable",
      "type": "function"
    },
    {
      "inputs": [],
      "name": "rewardAmount",
      "outputs": [
        {
          "internalType": "uint256",
          "name": "",
          "type": "uint256"
        }
      ],
      "stateMutability": "view",
      "type": "function"
    },
    {
      "inputs": [
        {
          "internalType": "address",
          "name": "to",
          "type": "address"
        },
        {
          "internalType": "uint256",
          "name": "amount",
          "type": "uint256"
        }
      ],
      "name": "rewardCreator",
      "outputs": [],
      "stateMutability": "nonpayable",
      "type": "function"
    },
    {
      "inputs": [
        {
          "internalType": "address",
          "name": "from",
          "type": "address"
        },
        {
          "internalType": "address",
          "name": "to",
          "type": "address"
        },
        {
          "internalType": "uint256",
          "name": "tokenId",
          "type": "uint256"
        }
      ],
      "name": "safeTransferFrom",
      "outputs": [],
      "stateMutability": "nonpayable",
      "type": "function"
    },
    {
      "inputs": [
        {
          "internalType": "address",
          "name": "from",
          "type": "address"
        },
        {
          "internalType": "address",
          "name": "to",
          "type": "address"
        },
        {
          "internalType": "uint256",
          "name": "tokenId",
          "type": "uint256"
        },
        {
          "internalType": "bytes",
          "name": "data",
          "type": "bytes"
        }
      ],
      "name": "safeTransferFrom",
      "outputs": [],
      "stateMutability": "nonpayable",
      "type": "function"
    },
    {
      "inputs": [
        {
          "internalType": "address",
          "name": "operator",
          "type": "address"
        },
        {
          "internalType": "bool",
          "name": "approved",
          "type": "bool"
        }
      ],
      "name": "setApprovalForAll",
      "outputs": [],
      "stateMutability": "nonpayable",
      "type": "function"
    },
    {
      "inputs": [
        {
          "internalType": "uint256",
          "name": "newAmount",
          "type": "uint256"
        }
      ],
      "name": "setRewardAmount",
      "outputs": [],
      "stateMutability": "nonpayable",
      "type": "function"
    },
    {
      "inputs": [
        {
          "internalType": "bytes4",
          "name": "interfaceId",
          "type": "bytes4"
        }
      ],
      "name": "supportsInterface",
      "outputs": [
        {
          "internalType": "bool",
          "name": "",
          "type": "bool"
        }
      ],
      "stateMutability": "view",
      "type": "function"
    },
    {
      "inputs": [],
      "name": "symbol",
      "outputs": [
        {
          "internalType": "string",
          "name": "",
          "type": "string"
        }
      ],
      "stateMutability": "view",
      "type": "function"
    },
    {
      "inputs": [
        {
          "internalType": "address",
          "name": "owner",
          "type": "address"
        },
        {
          "internalType": "address",
          "name": "spender",
          "type": "address"
        }
      ],
      "name": "tokenAllowance",
      "outputs": [
        {
          "internalType": "uint256",
          "name": "",
          "type": "uint256"
        }
      ],
      "stateMutability": "view",
      "type": "function"
    },
    {
      "inputs": [
        {
          "internalType": "address",
          "name": "spender",
          "type": "address"
        },
        {
          "internalType": "uint256",
          "name": "amount",
          "type": "uint256"
        }
      ],
      "name": "tokenApprove",
      "outputs": [
        {
          "internalType": "bool",
          "name": "",
          "type": "bool"
        }
      ],
      "stateMutability": "nonpayable",
      "type": "function"
    },
    {
      "inputs": [
        {
          "internalType": "address",
          "name": "account",
          "type": "address"
        }
      ],
      "name": "tokenBalanceOf",
      "outputs": [
        {
          "internalType": "uint256",
          "name": "",
          "type": "uint256"
        }
      ],
      "stateMutability": "view",
      "type": "function"
    },
    {
      "inputs": [
        {
          "internalType": "uint256",
          "name": "index",
          "type": "uint256"
        }
      ],
      "name": "tokenByIndex",
      "outputs": [
        {
          "internalType": "uint256",
          "name": "",
          "type": "uint256"
        }
      ],
      "stateMutability": "view",
      "type": "function"
    },
    {
      "inputs": [],
      "name": "tokenDecimals",
      "outputs": [
        {
          "internalType": "uint8",
          "name": "",
          "type": "uint8"
        }
      ],
      "stateMutability": "view",
      "type": "function"
    },
    {
      "inputs": [],
      "name": "tokenName",
      "outputs": [
        {
          "internalType": "string",
          "name": "",
          "type": "string"
        }
      ],
      "stateMutability": "view",
      "type": "function"
    },
    {
      "inputs": [
        {
          "internalType": "address",
          "name": "owner",
          "type": "address"
        },
        {
          "internalType": "uint256",
          "name": "index",
          "type": "uint256"
        }
      ],
      "name": "tokenOfOwnerByIndex",
      "outputs": [
        {
          "internalType": "uint256",
          "name": "",
          "type": "uint256"
        }
      ],
      "stateMutability": "view",
      "type": "function"
    },
    {
      "inputs": [],
      "name": "tokenSymbol",
      "outputs": [
        {
          "internalType": "string",
          "name": "",
          "type": "string"
        }
      ],
      "stateMutability": "view",
      "type": "function"
    },
    {
      "inputs": [],
      "name": "tokenTotalSupply",
      "outputs": [
        {
          "internalType": "uint256",
          "name": "",
          "type": "uint256"
        }
      ],
      "stateMutability": "view",
      "type": "function"
    },
    {
      "inputs": [
        {
          "internalType": "address",
          "name": "to",
          "type": "address"
        },
        {
          "internalType": "uint256",
          "name": "amount",
          "type": "uint256"
        }
      ],
      "name": "tokenTransfer",
      "outputs": [
        {
          "internalType": "bool",
          "name": "",
          "type": "bool"
        }
      ],
      "stateMutability": "nonpayable",
      "type": "function"
    },
    {
      "inputs": [
        {
          "internalType": "address",
          "name": "from",
          "type": "address"
        },
        {
          "internalType": "address",
          "name": "to",
          "type": "address"
        },
        {
          "internalType": "uint256",
          "name": "amount",
          "type": "uint256"
        }
      ],
      "name": "tokenTransferFrom",
      "outputs": [
        {
          "internalType": "bool",
          "name": "",
          "type": "bool"
        }
      ],
      "stateMutability": "nonpayable",
      "type": "function"
    },
    {
      "inputs": [
        {
          "internalType": "uint256",
          "name": "tokenId",
          "type": "uint256"
        }
      ],
      "name": "tokenURI",
      "outputs": [
        {
          "internalType": "string",
          "name": "",
          "type": "string"
        }
      ],
      "stateMutability": "view",
      "type": "function"
    },
    {
      "inputs": [],
      "name": "totalNFTSupply",
      "outputs": [
        {
          "internalType": "uint256",
          "name": "",
          "type": "uint256"
        }
      ],
      "stateMutability": "view",
      "type": "function"
    },
    {
      "inputs": [],
      "name": "totalSupply",
      "outputs": [
        {
          "internalType": "uint256",
          "name": "",
          "type": "uint256"
        }
      ],
      "stateMutability": "view",
      "type": "function"
    },
    {
      "inputs": [
        {
          "internalType": "address",
          "name": "from",
          "type": "address"
        },
        {
          "internalType": "address",
          "name": "to",
          "type": "address"
        },
        {
          "internalType": "uint256",
          "name": "tokenId",
          "type": "uint256"
        }
      ],
      "name": "transferFrom",
      "outputs": [],
      "stateMutability": "nonpayable",
      "type": "function"
    },
    {
      "inputs": [
        {
          "internalType": "address",
          "name": "newOwner",
          "type": "address"
        }
      ],
      "name": "transferOwnership",
      "outputs": [],
      "stateMutability": "nonpayable",
      "type": "function"
    },
    {
      "inputs": [],
      "name": "unpause",
      "outputs": [],
      "stateMutability": "nonpayable",
      "type": "function"
    }
  ],
  "transactionHash": "0x16e7698f65c8e30ef89e070f7e94b53b5077cad5d15d1dc853d03942db4a5416",
  "args": [
    "100000000000000000000"
  ],
  "numDeployments": 1,
  "solcInputHash": "9e3b06734ca5e08c2aeb0417ac5482e7",
  "bytecode": "0x6001600e5560c0604052600c60809081526b21b932b0ba37b92a37b5b2b760a11b60a0526014906200003290826200025b565b5060408051808201909152600381526243544b60e81b60208201526015906200005c90826200025b565b506016805460ff191660121790553480156200007757600080fd5b5060405162002d3f38038062002d3f8339810160408190526200009a9162000327565b60405180604001604052806006815260200165105c9d13919560d21b815250604051806040016040528060048152602001631053919560e21b8152508160009081620000e791906200025b565b506001620000f682826200025b565b505050620001136200010d6200016060201b60201c565b62000164565b6001600c55600d805460ff19169055801580620001385750683635c9adc5dea0000081115b156200015757604051633853986560e01b815260040160405180910390fd5b600f5562000341565b3390565b600b80546001600160a01b038381166001600160a01b0319831681179093556040519116919082907f8be0079c531659141344cd1fd0a4f28419497f9722a3daafe3b4186f6b6457e090600090a35050565b634e487b7160e01b600052604160045260246000fd5b600181811c90821680620001e157607f821691505b6020821081036200020257634e487b7160e01b600052602260045260246000fd5b50919050565b601f8211156200025657600081815260208120601f850160051c81016020861015620002315750805b601f850160051c820191505b8181101562000252578281556001016200023d565b5050505b505050565b81516001600160401b03811115620002775762000277620001b6565b6200028f81620002888454620001cc565b8462000208565b602080601f831160018114620002c75760008415620002ae5750858301515b600019600386901b1c1916600185901b17855562000252565b600085815260208120601f198616915b82811015620002f857888601518255948401946001909101908401620002d7565b5085821015620003175787850151600019600388901b60f8161c191681555b5050505050600190811b01905550565b6000602082840312156200033a57600080fd5b5051919050565b6129ee80620003516000396000f3fe608060405234801561001057600080fd5b50600436106102895760003560e01c8063715018a61161015c578063bceb1c6f116100ce578063e7f7fb8611610087578063e7f7fb861461058b578063e985e9c51461059e578063f2fde38b146105da578063f7abab9e146105ed578063f7b2a7be146105f5578063fb37e883146105fe57600080fd5b8063bceb1c6f146104fa578063c87b56dd1461050d578063cd53d08e14610520578063e2c7928114610549578063e42c08f214610551578063e489d5101461057a57600080fd5b8063961974ba11610120578063961974ba14610495578063a04f6b4b146104a8578063a22cb465146104b8578063a8a65a78146104cb578063b5077f44146104de578063b88d4fde146104e757600080fd5b8063715018a6146104645780637b61c3201461046c5780638456cb59146104745780638da5cb5b1461047c57806395d89b411461048d57600080fd5b806318160ddd116102005780634f6ccce7116101b95780634f6ccce7146104055780635c975abb146104185780636352211e1461042357806368cdafe6146104365780636c02a9311461044957806370a082311461045157600080fd5b806318160ddd146103a757806323b872dd146103af5780632f745c59146103c25780633b97e856146103d55780633f4ba83a146103ea57806342842e0e146103f257600080fd5b8063095ea7b311610252578063095ea7b3146103175780630bb237841461032a5780630cd689f5146103405780630e313e9814610353578063119c1c231461036657806312c0f3d31461039f57600080fd5b80628bfb001461028e57806301ffc9a7146102ac57806306fdde03146102cf5780630773fdb9146102d7578063081812fc146102ec575b600080fd5b610296610611565b6040516102a3919061233d565b60405180910390f35b6102bf6102ba366004612366565b610620565b60405190151581526020016102a3565b610296610631565b6102ea6102e536600461239f565b6106c3565b005b6102ff6102fa3660046123c9565b61076b565b6040516001600160a01b0390911681526020016102a3565b6102ea61032536600461239f565b610792565b6103326108ac565b6040519081526020016102a3565b6102bf61034e36600461239f565b6108b7565b6103326103613660046123e2565b61097e565b6103326103743660046123fd565b6001600160a01b03918216600090815260126020908152604080832093909416825291909152205490565b610296610989565b600954610332565b6102ea6103bd366004612430565b610993565b6103326103d036600461239f565b6109c4565b60165460405160ff90911681526020016102a3565b6102ea610a5a565b6102ea610400366004612430565b610a6c565b6103326104133660046123c9565b610a87565b600d5460ff166102bf565b6102ff6104313660046123c9565b610b1a565b6102bf61044436600461239f565b610b7a565b610296610c77565b61033261045f3660046123e2565b610c86565b6102ea610d0c565b610296610d1e565b6102ea610d2d565b600b546001600160a01b03166102ff565b610296610d3d565b6102bf6104a3366004612430565b610d4c565b610332683635c9adc5dea0000081565b6102ea6104c636600461246c565b610f91565b6102ea6104d93660046123c9565b610f9c565b61033261271081565b6102ea6104f5366004612534565b61101d565b6102ea61050836600461239f565b611055565b61029661051b3660046123c9565b61105f565b6102ff61052e3660046123c9565b6010602052600090815260409020546001600160a01b031681565b61033261106a565b61033261055f3660046123e2565b6001600160a01b031660009081526011602052604090205490565b61033269d3c21bcecceda100000081565b6102ea610599366004612430565b61107b565b6102bf6105ac3660046123fd565b6001600160a01b03918216600090815260056020908152604080832093909416825291909152205460ff1690565b6102ea6105e83660046123e2565b611086565b601354610332565b610332600f5481565b6102ea61060c3660046125b0565b6110ff565b606061061b610631565b905090565b600061062b82611232565b92915050565b606060008054610640906125f9565b80601f016020809104026020016040519081016040528092919081815260200182805461066c906125f9565b80156106b95780601f1061068e576101008083540402835291602001916106b9565b820191906000526020600020905b81548152906001019060200180831161069c57829003601f168201915b5050505050905090565b6106cb611257565b6001600160a01b0382166106f25760405163d92e233d60e01b815260040160405180910390fd5b8015806107075750683635c9adc5dea0000081115b1561072557604051633853986560e01b815260040160405180910390fd5b69d3c21bcecceda10000008160135461073e9190612649565b111561075d57604051630397db2f60e21b815260040160405180910390fd5b61076782826112b1565b5050565b600061077682611390565b506000908152600460205260409020546001600160a01b031690565b600061079d82610b1a565b9050806001600160a01b0316836001600160a01b03160361080f5760405162461bcd60e51b815260206004820152602160248201527f4552433732313a20617070726f76616c20746f2063757272656e74206f776e656044820152603960f91b60648201526084015b60405180910390fd5b336001600160a01b038216148061082b575061082b81336105ac565b61089d5760405162461bcd60e51b815260206004820152603d60248201527f4552433732313a20617070726f76652063616c6c6572206973206e6f7420746f60448201527f6b656e206f776e6572206f7220617070726f76656420666f7220616c6c0000006064820152608401610806565b6108a783836113ef565b505050565b600061061b60095490565b60006001600160a01b03831661091a5760405162461bcd60e51b815260206004820152602260248201527f45524332303a20617070726f766520746f20746865207a65726f206164647265604482015261737360f01b6064820152608401610806565b3360008181526012602090815260408083206001600160a01b03881680855290835292819020869055518581529192917fbd8c52b9aae0cd00b85a5f7486cffa402789c66b7fcf362cde5f658b16970630910160405180910390a350600192915050565b600061062b82610c86565b606061061b610d3d565b61099d338261145d565b6109b95760405162461bcd60e51b81526004016108069061265c565b6108a78383836114dc565b60006109cf83610c86565b8210610a315760405162461bcd60e51b815260206004820152602b60248201527f455243373231456e756d657261626c653a206f776e657220696e646578206f7560448201526a74206f6620626f756e647360a81b6064820152608401610806565b506001600160a01b03919091166000908152600760209081526040808320938352929052205490565b610a62611257565b610a6a61164d565b565b6108a78383836040518060200160405280600081525061101d565b6000610a9260095490565b8210610af55760405162461bcd60e51b815260206004820152602c60248201527f455243373231456e756d657261626c653a20676c6f62616c20696e646578206f60448201526b7574206f6620626f756e647360a01b6064820152608401610806565b60098281548110610b0857610b086126a9565b90600052602060002001549050919050565b6000818152600260205260408120546001600160a01b03168061062b5760405162461bcd60e51b8152602060048201526018602482015277115490cdcc8c4e881a5b9d985b1a59081d1bdad95b88125160421b6044820152606401610806565b6000610b8461169f565b6001600160a01b038316610baa5760405162461bcd60e51b8152600401610806906126bf565b33600090815260116020526040902054821115610bd95760405162461bcd60e51b815260040161080690612702565b3360009081526011602052604081208054849290610bf8908490612748565b90915550506001600160a01b03831660009081526011602052604081208054849290610c25908490612649565b90915550506040518281526001600160a01b0384169033907fd0ed88a3f042c6bbb1e3ea406079b5f2b4b198afccaa535d837f4c63abbc4de69060200160405180910390a350600161062b6001600c55565b606060148054610640906125f9565b60006001600160a01b038216610cf05760405162461bcd60e51b815260206004820152602960248201527f4552433732313a2061646472657373207a65726f206973206e6f7420612076616044820152683634b21037bbb732b960b91b6064820152608401610806565b506001600160a01b031660009081526003602052604090205490565b610d14611257565b610a6a60006116f8565b606060158054610640906125f9565b610d35611257565b610a6a61174a565b606060018054610640906125f9565b6000610d5661169f565b6001600160a01b038416610dba5760405162461bcd60e51b815260206004820152602560248201527f45524332303a207472616e736665722066726f6d20746865207a65726f206164604482015264647265737360d81b6064820152608401610806565b6001600160a01b038316610de05760405162461bcd60e51b8152600401610806906126bf565b6001600160a01b038416600090815260116020526040902054821115610e185760405162461bcd60e51b815260040161080690612702565b6001600160a01b0384166000908152601260209081526040808320338452909152902054821115610e9c5760405162461bcd60e51b815260206004820152602860248201527f45524332303a207472616e7366657220616d6f756e74206578636565647320616044820152676c6c6f77616e636560c01b6064820152608401610806565b6001600160a01b03841660009081526011602052604081208054849290610ec4908490612748565b90915550506001600160a01b03831660009081526011602052604081208054849290610ef1908490612649565b90915550506001600160a01b038416600090815260126020908152604080832033845290915281208054849290610f29908490612748565b92505081905550826001600160a01b0316846001600160a01b03167fd0ed88a3f042c6bbb1e3ea406079b5f2b4b198afccaa535d837f4c63abbc4de684604051610f7591815260200190565b60405180910390a3506001610f8a6001600c55565b9392505050565b610767338383611787565b610fa4611257565b801580610fb95750683635c9adc5dea0000081115b15610fd757604051633853986560e01b815260040160405180910390fd5b600f80549082905560408051828152602081018490527ff0d37c3ae852021ac329281f604b658691cbfa6b9e9c22909f06b64a8ce87c9491015b60405180910390a15050565b611027338361145d565b6110435760405162461bcd60e51b81526004016108069061265c565b61104f84848484611855565b50505050565b6107678282610792565b606061062b82611888565b60006001600e5461061b9190612748565b6108a7838383610993565b61108e611257565b6001600160a01b0381166110f35760405162461bcd60e51b815260206004820152602660248201527f4f776e61626c653a206e6577206f776e657220697320746865207a65726f206160448201526564647265737360d01b6064820152608401610806565b6110fc816116f8565b50565b61110761169f565b61110f611990565b805160000361113157604051633ba0191160e01b815260040160405180910390fd5b612710600e5411156111565760405163d05cb60960e01b815260040160405180910390fd5b600e8054600091826111678361275b565b91905055905061117733826119d6565b61118181836119f0565b600081815260106020526040902080546001600160a01b03191633179055600f5460135469d3c21bcecceda1000000916111ba91612649565b11156111d957604051630397db2f60e21b815260040160405180910390fd5b6111e533600f546112b1565b80336001600160a01b03167fd35bb95e09c04b219e35047ce7b7b300e3384264ef84a40456943dbc0fc17c148460405161121f919061233d565b60405180910390a3506110fc6001600c55565b60006001600160e01b0319821663780e9d6360e01b148061062b575061062b82611ab4565b600b546001600160a01b03163314610a6a5760405162461bcd60e51b815260206004820181905260248201527f4f776e61626c653a2063616c6c6572206973206e6f7420746865206f776e65726044820152606401610806565b6001600160a01b0382166113075760405162461bcd60e51b815260206004820152601f60248201527f45524332303a206d696e7420746f20746865207a65726f2061646472657373006044820152606401610806565b80601360008282546113199190612649565b90915550506001600160a01b03821660009081526011602052604081208054839290611346908490612649565b90915550506040518181526001600160a01b038316906000907fd0ed88a3f042c6bbb1e3ea406079b5f2b4b198afccaa535d837f4c63abbc4de69060200160405180910390a35050565b6000818152600260205260409020546001600160a01b03166110fc5760405162461bcd60e51b8152602060048201526018602482015277115490cdcc8c4e881a5b9d985b1a59081d1bdad95b88125160421b6044820152606401610806565b600081815260046020526040902080546001600160a01b0319166001600160a01b038416908117909155819061142482610b1a565b6001600160a01b03167f8c5be1e5ebec7d5bd14f71427d1e84f3dd0314c0f7b2291e5b200ac8c7c3b92560405160405180910390a45050565b60008061146983610b1a565b9050806001600160a01b0316846001600160a01b031614806114b057506001600160a01b0380821660009081526005602090815260408083209388168352929052205460ff165b806114d45750836001600160a01b03166114c98461076b565b6001600160a01b0316145b949350505050565b826001600160a01b03166114ef82610b1a565b6001600160a01b0316146115155760405162461bcd60e51b815260040161080690612774565b6001600160a01b0382166115775760405162461bcd60e51b8152602060048201526024808201527f4552433732313a207472616e7366657220746f20746865207a65726f206164646044820152637265737360e01b6064820152608401610806565b6115848383836001611ad9565b826001600160a01b031661159782610b1a565b6001600160a01b0316146115bd5760405162461bcd60e51b815260040161080690612774565b600081815260046020908152604080832080546001600160a01b03199081169091556001600160a01b0387811680865260038552838620805460001901905590871680865283862080546001019055868652600290945282852080549092168417909155905184937fddf252ad1be2c89b69c2b068fc378daa952ba7f163c4a11628f55a4df523b3ef91a4505050565b611655611ae5565b600d805460ff191690557f5db9ee0a495bf2e6ff9c91a7834c1ba4fdd244a5e8aa4e537bd38aeae4b073aa335b6040516001600160a01b03909116815260200160405180910390a1565b6002600c54036116f15760405162461bcd60e51b815260206004820152601f60248201527f5265656e7472616e637947756172643a207265656e7472616e742063616c6c006044820152606401610806565b6002600c55565b600b80546001600160a01b038381166001600160a01b0319831681179093556040519116919082907f8be0079c531659141344cd1fd0a4f28419497f9722a3daafe3b4186f6b6457e090600090a35050565b611752611990565b600d805460ff191660011790557f62e78cea01bee320cd4e420270b5ea74000d11b0c9f74754ebdbfc544b05a2586116823390565b816001600160a01b0316836001600160a01b0316036117e85760405162461bcd60e51b815260206004820152601960248201527f4552433732313a20617070726f766520746f2063616c6c6572000000000000006044820152606401610806565b6001600160a01b03838116600081815260056020908152604080832094871680845294825291829020805460ff191686151590811790915591519182527f17307eab39ab6107e8899845ad3d59bd9653f200f220920489ca2b5937696c31910160405180910390a3505050565b6118608484846114dc565b61186c84848484611b2e565b61104f5760405162461bcd60e51b8152600401610806906127b9565b606061189382611390565b600082815260066020526040812080546118ac906125f9565b80601f01602080910402602001604051908101604052809291908181526020018280546118d8906125f9565b80156119255780601f106118fa57610100808354040283529160200191611925565b820191906000526020600020905b81548152906001019060200180831161190857829003601f168201915b50505050509050600061194360408051602081019091526000815290565b90508051600003611955575092915050565b81511561198757808260405160200161196f92919061280b565b60405160208183030381529060405292505050919050565b6114d484611c2f565b600d5460ff1615610a6a5760405162461bcd60e51b815260206004820152601060248201526f14185d5cd8589b194e881c185d5cd95960821b6044820152606401610806565b610767828260405180602001604052806000815250611ca2565b6000828152600260205260409020546001600160a01b0316611a6b5760405162461bcd60e51b815260206004820152602e60248201527f45524337323155524953746f726167653a2055524920736574206f66206e6f6e60448201526d32bc34b9ba32b73a103a37b5b2b760911b6064820152608401610806565b6000828152600660205260409020611a838282612888565b506040518281527ff8e1a15aba9398e019f0b49df1a4fde98ee17ae345cb5f6b5e2c27f5033e8ce790602001611011565b60006001600160e01b03198216632483248360e11b148061062b575061062b82611cd5565b61104f84848484611d25565b600d5460ff16610a6a5760405162461bcd60e51b815260206004820152601460248201527314185d5cd8589b194e881b9bdd081c185d5cd95960621b6044820152606401610806565b60006001600160a01b0384163b15611c2457604051630a85bd0160e11b81526001600160a01b0385169063150b7a0290611b72903390899088908890600401612948565b6020604051808303816000875af1925050508015611bad575060408051601f3d908101601f19168201909252611baa91810190612985565b60015b611c0a573d808015611bdb576040519150601f19603f3d011682016040523d82523d6000602084013e611be0565b606091505b508051600003611c025760405162461bcd60e51b8152600401610806906127b9565b805181602001fd5b6001600160e01b031916630a85bd0160e11b1490506114d4565b506001949350505050565b6060611c3a82611390565b6000611c5160408051602081019091526000815290565b90506000815111611c715760405180602001604052806000815250610f8a565b80611c7b84611e59565b604051602001611c8c92919061280b565b6040516020818303038152906040529392505050565b611cac8383611eec565b611cb96000848484611b2e565b6108a75760405162461bcd60e51b8152600401610806906127b9565b60006001600160e01b031982166380ac58cd60e01b1480611d0657506001600160e01b03198216635b5e139f60e01b145b8061062b57506301ffc9a760e01b6001600160e01b031983161461062b565b6001811115611d945760405162461bcd60e51b815260206004820152603560248201527f455243373231456e756d657261626c653a20636f6e7365637574697665207472604482015274185b9cd9995c9cc81b9bdd081cdd5c1c1bdc9d1959605a1b6064820152608401610806565b816001600160a01b038516611df057611deb81600980546000838152600a60205260408120829055600182018355919091527f6e1540171b6c0c960b71a7020d9f60077f6af931a8bbf590da0223dacf75c7af0155565b611e13565b836001600160a01b0316856001600160a01b031614611e1357611e138582612085565b6001600160a01b038416611e2f57611e2a81612122565b611e52565b846001600160a01b0316846001600160a01b031614611e5257611e5284826121d1565b5050505050565b60606000611e6683612215565b600101905060008167ffffffffffffffff811115611e8657611e866124a8565b6040519080825280601f01601f191660200182016040528015611eb0576020820181803683370190505b5090508181016020015b600019016f181899199a1a9b1b9c1cb0b131b232b360811b600a86061a8153600a8504945084611eba57509392505050565b6001600160a01b038216611f425760405162461bcd60e51b815260206004820181905260248201527f4552433732313a206d696e7420746f20746865207a65726f20616464726573736044820152606401610806565b6000818152600260205260409020546001600160a01b031615611fa75760405162461bcd60e51b815260206004820152601c60248201527f4552433732313a20746f6b656e20616c7265616479206d696e746564000000006044820152606401610806565b611fb5600083836001611ad9565b6000818152600260205260409020546001600160a01b03161561201a5760405162461bcd60e51b815260206004820152601c60248201527f4552433732313a20746f6b656e20616c7265616479206d696e746564000000006044820152606401610806565b6001600160a01b038216600081815260036020908152604080832080546001019055848352600290915280822080546001600160a01b0319168417905551839291907fddf252ad1be2c89b69c2b068fc378daa952ba7f163c4a11628f55a4df523b3ef908290a45050565b6000600161209284610c86565b61209c9190612748565b6000838152600860205260409020549091508082146120ef576001600160a01b03841660009081526007602090815260408083208584528252808320548484528184208190558352600890915290208190555b5060009182526008602090815260408084208490556001600160a01b039094168352600781528383209183525290812055565b60095460009061213490600190612748565b6000838152600a60205260408120546009805493945090928490811061215c5761215c6126a9565b90600052602060002001549050806009838154811061217d5761217d6126a9565b6000918252602080832090910192909255828152600a909152604080822084905585825281205560098054806121b5576121b56129a2565b6001900381819060005260206000200160009055905550505050565b60006121dc83610c86565b6001600160a01b039093166000908152600760209081526040808320868452825280832085905593825260089052919091209190915550565b60008072184f03e93ff9f4daa797ed6e38ed64bf6a1f0160401b83106122545772184f03e93ff9f4daa797ed6e38ed64bf6a1f0160401b830492506040015b6d04ee2d6d415b85acef81000000008310612280576d04ee2d6d415b85acef8100000000830492506020015b662386f26fc10000831061229e57662386f26fc10000830492506010015b6305f5e10083106122b6576305f5e100830492506008015b61271083106122ca57612710830492506004015b606483106122dc576064830492506002015b600a831061062b5760010192915050565b60005b838110156123085781810151838201526020016122f0565b50506000910152565b600081518084526123298160208601602086016122ed565b601f01601f19169290920160200192915050565b602081526000610f8a6020830184612311565b6001600160e01b0319811681146110fc57600080fd5b60006020828403121561237857600080fd5b8135610f8a81612350565b80356001600160a01b038116811461239a57600080fd5b919050565b600080604083850312156123b257600080fd5b6123bb83612383565b946020939093013593505050565b6000602082840312156123db57600080fd5b5035919050565b6000602082840312156123f457600080fd5b610f8a82612383565b6000806040838503121561241057600080fd5b61241983612383565b915061242760208401612383565b90509250929050565b60008060006060848603121561244557600080fd5b61244e84612383565b925061245c60208501612383565b9150604084013590509250925092565b6000806040838503121561247f57600080fd5b61248883612383565b91506020830135801515811461249d57600080fd5b809150509250929050565b634e487b7160e01b600052604160045260246000fd5b600067ffffffffffffffff808411156124d9576124d96124a8565b604051601f8501601f19908116603f01168101908282118183101715612501576125016124a8565b8160405280935085815286868601111561251a57600080fd5b858560208301376000602087830101525050509392505050565b6000806000806080858703121561254a57600080fd5b61255385612383565b935061256160208601612383565b925060408501359150606085013567ffffffffffffffff81111561258457600080fd5b8501601f8101871361259557600080fd5b6125a4878235602084016124be565b91505092959194509250565b6000602082840312156125c257600080fd5b813567ffffffffffffffff8111156125d957600080fd5b8201601f810184136125ea57600080fd5b6114d4848235602084016124be565b600181811c9082168061260d57607f821691505b60208210810361262d57634e487b7160e01b600052602260045260246000fd5b50919050565b634e487b7160e01b600052601160045260246000fd5b8082018082111561062b5761062b612633565b6020808252602d908201527f4552433732313a2063616c6c6572206973206e6f7420746f6b656e206f776e6560408201526c1c881bdc88185c1c1c9bdd9959609a1b606082015260800190565b634e487b7160e01b600052603260045260246000fd5b60208082526023908201527f45524332303a207472616e7366657220746f20746865207a65726f206164647260408201526265737360e81b606082015260800190565b60208082526026908201527f45524332303a207472616e7366657220616d6f756e7420657863656564732062604082015265616c616e636560d01b606082015260800190565b8181038181111561062b5761062b612633565b60006001820161276d5761276d612633565b5060010190565b60208082526025908201527f4552433732313a207472616e736665722066726f6d20696e636f72726563742060408201526437bbb732b960d91b606082015260800190565b60208082526032908201527f4552433732313a207472616e7366657220746f206e6f6e20455243373231526560408201527131b2b4bb32b91034b6b83632b6b2b73a32b960711b606082015260800190565b6000835161281d8184602088016122ed565b8351908301906128318183602088016122ed565b01949350505050565b601f8211156108a757600081815260208120601f850160051c810160208610156128615750805b601f850160051c820191505b818110156128805782815560010161286d565b505050505050565b815167ffffffffffffffff8111156128a2576128a26124a8565b6128b6816128b084546125f9565b8461283a565b602080601f8311600181146128eb57600084156128d35750858301515b600019600386901b1c1916600185901b178555612880565b600085815260208120601f198616915b8281101561291a578886015182559484019460019091019084016128fb565b50858210156129385787850151600019600388901b60f8161c191681555b5050505050600190811b01905550565b6001600160a01b038581168252841660208201526040810183905260806060820181905260009061297b90830184612311565b9695505050505050565b60006020828403121561299757600080fd5b8151610f8a81612350565b634e487b7160e01b600052603160045260246000fdfea264697066735822122088bdc9465e6d1b7be1fdc562149a2448855d89cf3f03132c469ea49bbf8c644164736f6c63430008110033",
  "devdoc": {
    "details": "Single contract combining ERC721 NFTs with custom token rewards",
    "kind": "dev",
    "methods": {
      "approve(address,uint256)": {
        "details": "See {IERC721-approve}."
      },
      "balanceOf(address)": {
        "details": "See {IERC721-balanceOf}."
      },
      "getApproved(uint256)": {
        "details": "See {IERC721-getApproved}."
      },
      "isApprovedForAll(address,address)": {
        "details": "See {IERC721-isApprovedForAll}."
      },
      "name()": {
        "details": "See {IERC721Metadata-name}."
      },
      "owner()": {
        "details": "Returns the address of the current owner."
      },
      "ownerOf(uint256)": {
        "details": "See {IERC721-ownerOf}."
      },
      "paused()": {
        "details": "Returns true if the contract is paused, and false otherwise."
      },
      "renounceOwnership()": {
        "details": "Leaves the contract without owner. It will not be possible to call `onlyOwner` functions. Can only be called by the current owner. NOTE: Renouncing ownership will leave the contract without an owner, thereby disabling any functionality that is only available to the owner."
      },
      "safeTransferFrom(address,address,uint256)": {
        "details": "See {IERC721-safeTransferFrom}."
      },
      "safeTransferFrom(address,address,uint256,bytes)": {
        "details": "See {IERC721-safeTransferFrom}."
      },
      "setApprovalForAll(address,bool)": {
        "details": "See {IERC721-setApprovalForAll}."
      },
      "symbol()": {
        "details": "See {IERC721Metadata-symbol}."
      },
      "tokenByIndex(uint256)": {
        "details": "See {IERC721Enumerable-tokenByIndex}."
      },
      "tokenOfOwnerByIndex(address,uint256)": {
        "details": "See {IERC721Enumerable-tokenOfOwnerByIndex}."
      },
      "totalSupply()": {
        "details": "See {IERC721Enumerable-totalSupply}."
      },
      "transferFrom(address,address,uint256)": {
        "details": "See {IERC721-transferFrom}."
      },
      "transferOwnership(address)": {
        "details": "Transfers ownership of the contract to a new account (`newOwner`). Can only be called by the current owner."
      }
    },
    "title": "ArtPlatform  NFT platform where creators earn tokens when users mint their art",
    "version": 1
  },
  "userdoc": {
    "kind": "user",
    "methods": {},
    "version": 1
  },
  "storageLayout": {
    "storage": [
      {
        "astId": 339,
        "contract": "contracts/ArtPlatform.sol:ArtPlatform",
        "label": "_name",
        "offset": 0,
        "slot": "0",
        "type": "t_string_storage"
      },
      {
        "astId": 341,
        "contract": "contracts/ArtPlatform.sol:ArtPlatform",
        "label": "_symbol",
        "offset": 0,
        "slot": "1",
        "type": "t_string_storage"
      },
      {
        "astId": 345,
        "contract": "contracts/ArtPlatform.sol:ArtPlatform",
        "label": "_owners",
        "offset": 0,
        "slot": "2",
        "type": "t_mapping(t_uint256,t_address)"
      },
      {
        "astId": 349,
        "contract": "contracts/ArtPlatform.sol:ArtPlatform",
        "label": "_balances",
        "offset": 0,
        "slot": "3",
        "type": "t_mapping(t_address,t_uint256)"
      },
      {
        "astId": 353,
        "contract": "contracts/ArtPlatform.sol:ArtPlatform",
        "label": "_tokenApprovals",
        "offset": 0,
        "slot": "4",
        "type": "t_mapping(t_uint256,t_address)"
      },
      {
        "astId": 359,
        "contract": "contracts/ArtPlatform.sol:ArtPlatform",
        "label": "_operatorApprovals",
        "offset": 0,
        "slot": "5",
        "type": "t_mapping(t_address,t_mapping(t_address,t_bool))"
      },
      {
        "astId": 1744,
        "contract": "contracts/ArtPlatform.sol:ArtPlatform",
        "label": "_tokenURIs",
        "offset": 0,
        "slot": "6",
        "type": "t_mapping(t_uint256,t_string_storage)"
      },
      {
        "astId": 1389,
        "contract": "contracts/ArtPlatform.sol:ArtPlatform",
        "label": "_ownedTokens",
        "offset": 0,
        "slot": "7",
        "type": "t_mapping(t_address,t_mapping(t_uint256,t_uint256))"
      },
      {
        "astId": 1393,
        "contract": "contracts/ArtPlatform.sol:ArtPlatform",
        "label": "_ownedTokensIndex",
        "offset": 0,
        "slot": "8",
        "type": "t_mapping(t_uint256,t_uint256)"
      },
      {
        "astId": 1396,
        "contract": "contracts/ArtPlatform.sol:ArtPlatform",
        "label": "_allTokens",
        "offset": 0,
        "slot": "9",
        "type": "t_array(t_uint256)dyn_storage"
      },
      {
        "astId": 1400,
        "contract": "contracts/ArtPlatform.sol:ArtPlatform",
        "label": "_allTokensIndex",
        "offset": 0,
        "slot": "10",
        "type": "t_mapping(t_uint256,t_uint256)"
      },
      {
        "astId": 7,
        "contract": "contracts/ArtPlatform.sol:ArtPlatform",
        "label": "_owner",
        "offset": 0,
        "slot": "11",
        "type": "t_address"
      },
      {
        "astId": 259,
        "contract": "contracts/ArtPlatform.sol:ArtPlatform",
        "label": "_status",
        "offset": 0,
        "slot": "12",
        "type": "t_uint256"
      },
      {
        "astId": 158,
        "contract": "contracts/ArtPlatform.sol:ArtPlatform",
        "label": "_paused",
        "offset": 0,
        "slot": "13",
        "type": "t_bool"
      },
      {
        "astId": 3568,
        "contract": "contracts/ArtPlatform.sol:ArtPlatform",
        "label": "_nextTokenId",
        "offset": 0,
        "slot": "14",
        "type": "t_uint256"
      },
      {
        "astId": 3570,
        "contract": "contracts/ArtPlatform.sol:ArtPlatform",
        "label": "rewardAmount",
        "offset": 0,
        "slot": "15",
        "type": "t_uint256"
      },
      {
        "astId": 3574,
        "contract": "contracts/ArtPlatform.sol:ArtPlatform",
        "label": "creators",
        "offset": 0,
        "slot": "16",
        "type": "t_mapping(t_uint256,t_address)"
      },
      {
        "astId": 3578,
        "contract": "contracts/ArtPlatform.sol:ArtPlatform",
        "label": "_tokenBalances",
        "offset": 0,
        "slot": "17",
        "type": "t_mapping(t_address,t_uint256)"
      },
      {
        "astId": 3584,
        "contract": "contracts/ArtPlatform.sol:ArtPlatform",
        "label": "_tokenAllowances",
        "offset": 0,
        "slot": "18",
        "type": "t_mapping(t_address,t_mapping(t_address,t_uint256))"
      },
      {
        "astId": 3586,
        "contract": "contracts/ArtPlatform.sol:ArtPlatform",
        "label": "_tokenTotalSupply",
        "offset": 0,
        "slot": "19",
        "type": "t_uint256"
      },
      {
        "astId": 3589,
        "contract": "contracts/ArtPlatform.sol:ArtPlatform",
        "label": "_tokenName",
        "offset": 0,
        "slot": "20",
        "type": "t_string_storage"
      },
      {
        "astId": 3592,
        "contract": "contracts/ArtPlatform.sol:ArtPlatform",
        "label": "_tokenSymbol",
        "offset": 0,
        "slot": "21",
        "type": "t_string_storage"
      },
      {
        "astId": 3595,
        "contract": "contracts/ArtPlatform.sol:ArtPlatform",
        "label": "_tokenDecimals",
        "offset": 0,
        "slot": "22",
        "type": "t_uint8"
      }
    ],
    "types": {
      "t_address": {
        "encoding": "inplace",
        "label": "address",
        "numberOfBytes": "20"
      },
      "t_array(t_uint256)dyn_storage": {
        "base": "t_uint256",
        "encoding": "dynamic_array",
        "label": "uint256[]",
        "numberOfBytes": "32"
      },
      "t_bool": {
        "encoding": "inplace",
        "label": "bool",
        "numberOfBytes": "1"
      },
      "t_mapping(t_address,t_bool)": {
        "encoding": "mapping",
        "key": "t_address",
        "label": "mapping(address => bool)",
        "numberOfBytes": "32",
        "value": "t_bool"
      },
      "t_mapping(t_address,t_mapping(t_address,t_bool))": {
        "encoding": "mapping",
        "key": "t_address",
        "label": "mapping(address => mapping(address => bool))",
        "numberOfBytes": "32",
        "value": "t_mapping(t_address,t_bool)"
      },
      "t_mapping(t_address,t_mapping(t_address,t_uint256))": {
        "encoding": "mapping",
        "key": "t_address",
        "label": "mapping(address => mapping(address => uint256))",
        "numberOfBytes": "32",
        "value": "t_mapping(t_address,t_uint256)"
      },
      "t_mapping(t_address,t_mapping(t_uint256,t_uint256))": {
        "encoding": "mapping",
        "key": "t_address",
        "label": "mapping(address => mapping(uint256 => uint256))",
        "numberOfBytes": "32",
        "value": "t_mapping(t_uint256,t_uint256)"
      },
      "t_mapping(t_address,t_uint256)": {
        "encoding": "mapping",
        "key": "t_address",
        "label": "mapping(address => uint256)",
        "numberOfBytes": "32",
        "value": "t_uint256"
      },
      "t_mapping(t_uint256,t_address)": {
        "encoding": "mapping",
        "key": "t_uint256",
        "label": "mapping(uint256 => address)",
        "numberOfBytes": "32",
        "value": "t_address"
      },
      "t_mapping(t_uint256,t_string_storage)": {
        "encoding": "mapping",
        "key": "t_uint256",
        "label": "mapping(uint256 => string)",
        "numberOfBytes": "32",
        "value": "t_string_storage"
      },
      "t_mapping(t_uint256,t_uint256)": {
        "encoding": "mapping",
        "key": "t_uint256",
        "label": "mapping(uint256 => uint256)",
        "numberOfBytes": "32",
        "value": "t_uint256"
      },
      "t_string_storage": {
        "encoding": "bytes",
        "label": "string",
        "numberOfBytes": "32"
      },
      "t_uint256": {
        "encoding": "inplace",
        "label": "uint256",
        "numberOfBytes": "32"
      },
      "t_uint8": {
        "encoding": "inplace",
        "label": "uint8",
        "numberOfBytes": "1"
      }
    }
  }
}